:020000040800F2
:10000000B00600202D080008290400082B04000871
:10001000F7050008FB050008FF05000800000000C8
:1000200000000000000000000000000003060008BF
:100030000506000800000000070600080906000881
:10004000470800084708000847080008C1050008DD
:100050004708000847080008470800084708000844
:100060002F04000847080008470800084708000850
:100070004708000847080008470800084708000824
:100080004708000847080008470800084708000814
:100090004708000847080008470800084708000804
:1000A00047080008470800084708000847080008F4
:1000B00047080008890500084708000847080008A5
:1000C00047080008470800084708000847080008D4
:1000D00047080008F904000833050008470800082D
:1000E0007B04000847080008470800084708000884
:1000F00047080008470800084708000847080008A4
:100100004708000847080008470800084708000893
:100110004708000847080008470800084708000883
:100120004708000847080008470800084708000873
:1001300000F002F800F04AF80AA090E8000C8244AF
:100140008344AAF10107DA4501D100F03FF8AFF28C
:10015000090EBAE80F0013F0010F18BFFB1A43F0A5
:1001600001031847A0700000C0700000103A24BFBF
:1001700078C878C1FAD8520724BF30C830C144BF0C
:1001800004680C607047000000230024002500264E
:10019000103A28BF78C1FBD8520728BF30C148BFEA
:1001A0000B607047662906F0BD83642904F05C8209
:1001B000002070471FB504F031FE0400002000212C
:1001C00005F044FFE0601FBD10B510BD04F02EFF28
:1001D0001146FFF7EFFF00F009F804F04CFF03B4FD
:1001E000FFF7F2FF03BC02F04DFF000088B00024CF
:1001F000A14600F09AFA03F0BFFF02F052FF02F0AE
:1002000095FE04F009F8FF21634800F045FC02F078
:10021000F8FF002003F0D5F800204FF6E0735FA24E
:100220000A210090084603F087F962A004F0FCF967
:1002300000BF04F0D6F90028FBD1ABE04FF4FA6020
:1002400002F003FF00204FF6E0735EA23C21009015
:10025000142003F071F900204FF6E07359A25021E9
:100260000090142003F068F900204FF6E07358A2C4
:1002700064210090142003F05FF900204FF6E07332
:1002800057A278210090142003F056F904F065F885
:1002900005462A460B4657A106A804F0D1F904F0FA
:1002A0005CF805462A460B4654A004F0BDF9002030
:1002B0004FF6E07306AA3C210090BE2003F03CF903
:1002C00004A905A804F061F99DF814204EA103A823
:1002D00004F0B6F99DF810204BA102A804F0B0F983
:1002E00000204FF6E07303AA50210090BE2003F0D7
:1002F00023F900204FF6E07302AA64210090BE208B
:1003000003F01AF94FF0000900240FE001213F48E3
:1003100002F0CDF800BF02213C4802F039FA002873
:10032000F9D03220B9FBF0F9601CC4B2322CEDDBFD
:10033000484606F0EFF807464FF06632344B06F0B9
:10034000FDF882460022334B05F046FF05462A465B
:100350000B4631A101A804F073F9484606F0DAF81B
:1003600007464FF066322A4B06F0E8F805460022B1
:10037000284B05F031FF824652460B4628A004F078
:1003800053F900204FF6E07301AA78210090BE20B7
:1003900003F0D2F852E7000000100140546869737E
:1003A000206973206120746573742070726F6A65B0
:1003B00063742100576176657368617265210D0A67
:1003C0000000000074656D7075726520697320000F
:1003D00068756D6964697479206973200000000094
:1003E0006C6967687420696E64656E7369747920DE
:1003F00069732000252E326C6600000025302E32F5
:100400006C660D0A00000000256400000024014015
:1004100066660A400000B040252E326600000000EB
:10042000252E346600000000704700BFFEE710B5BF
:10043000042001F081F801281ED101F08EF80A2075
:1004400002F003FE0421714800F003FB68B90121AA
:100450006F4800F00BFB20B901216D4800F013FB41
:1004600003E001216A4800F010FB00BF0421674847
:1004700000F0EFFA0028F9D010BD2DE9F04100247A
:100480000026002530E04FF40041624800F0E1FA18
:10049000012829D103F0E3FF0446FA2C00DB24E015
:1004A000C82C03DBFA2C01DA01260AE03C2C03DB22
:1004B0005A2C01DA012704E00A2C02DB322C00DA84
:1004C0000027012E0ED154480068400052490860B0
:1004D0000846006838440860202D03DB01204F499E
:1004E000087002E0681CC5B2CDE700BF4FF40040C1
:1004F00001F033F8BDE8F08110B54021484800F024
:10050000ECFE40F22551464800F0F0FE80B1444830
:1005100000F06CFE4349087008460178404800F03E
:1005200061FE00BF80213E4800F0CAFE0028F9D0DD
:1005300010BD10B540213C4800F0CFFE40F22551DF
:10054000394800F0D3FEF0B1374800F04FFE37498C
:10055000087008212F4800F096FA012002F075FD7E
:1005600032480178304800F03DFE00BF80212E481F
:1005700000F0A6FE0028F9D0022002F066FD082156
:10058000244800F082FA10BD10B50121284801F07E
:10059000F7FE28480078401C264908700846007875
:1005A0003C280CD10020087023480078401C2249C8
:1005B0000870084600783C2801D10020087010BD62
:1005C00010B5012002F092F9A0B1012002F09EF9CD
:1005D00001201A49087001210D4800F03AFA01285B
:1005E00004D101210A4800F050FA03E00121084833
:1005F00000F049FA10BD00BFFEE700BFFEE700BFF4
:10060000FEE77047704770477047000000180140D0
:10061000001001400020014034000020380000207C
:10062000003801400000002000440040010000208C
:1006300000040040490000204A0000203000002053
:1006400000BF011EA0F10100FBD170470CB50020D6
:10065000019000906C48006840F480306A4908605E
:1006600000BF6948006800F4003000900198401C09
:100670000190009818B90198B0F5A06FF1D16248C7
:10068000006800F4003010B10120009001E000206B
:1006900000900098012843D15C48006840F01000A9
:1006A0005A4908600846006820F0030008600846C0
:1006B000006840F0020008605348406852494860B2
:1006C0000846406848600846406840F480604860DA
:1006D0000846406820F47C1048600846406840F4B2
:1006E000E81048600846006840F08070086000BF6D
:1006F0004548006800F000700028F9D04248406882
:1007000020F00300404948600846406840F002007D
:10071000486000BF3C48406800F00C000828F9D150
:100720000CBD10B5FFF792FF10BD10B5364800683C
:1007300040F00100344908600846406834490840E8
:100740003149486008460068324908402E4908602F
:100750000846006820F4802008600846406820F4BD
:10076000FE0048604FF41F008860FFF7DAFF4FF08B
:1007700000602949086010BD10B50021002000224A
:10078000214B5B6803F00C0121B1042906D0082934
:1007900028D107E0214B224C236027E01F4B204C3F
:1007A000236023E0184B5B6803F47010164B5B6802
:1007B00003F48032022303EB904022B9194B4343E8
:1007C000174C23600DE0104B5B6803F4003323B13A
:1007D000144B4343124C236003E0104B4343104C33
:1007E000236003E00D4B0E4C236000BF00BF064B9F
:1007F0005B68C3F303130C4CE15C094B1B68CB40F3
:10080000074C236010BD0000001002400020024091
:100810000000FFF8FFFFF6FE08ED00E000127A008E
:100820000400002000093D0008000020094880471E
:1008300009480047FEE7FEE7FEE7FEE7FEE7FEE7C2
:10084000FEE7FEE7FEE7FEE704480549054A064BDA
:10085000704700002B07000831010008B00000209D
:10086000B0060020B0020020B002002010B50446FF
:10087000CC48844208D10121042000F02DFB002146
:10088000042000F029FB46E0C748844208D101213A
:10089000082000F021FB0021082000F01DFB3AE0B9
:1008A000C248844208D10121102000F015FB00212C
:1008B000102000F011FB2EE0BD48844208D1012138
:1008C000202000F009FB0021202000F005FB22E0A1
:1008D000B848844208D10121402000F0FDFA0021EF
:1008E000402000F0F9FA16E0B348844208D1012113
:1008F000802000F0F1FA0021802000F0EDFA0AE0FB
:10090000AE48844207D10121801500F0E5FA0021AC
:10091000A01500F0E1FA10BD10B50121084600F065
:10092000DBFA0021012000F0D7FA10BD2DE9F041DB
:10093000024600250026002000230024002791F80D
:1009400003C00CF00F0591F803C00CF0100CBCF1C3
:10095000000F03D091F802C04CEA050591F800C0E1
:10096000BCF1000F31D0146800202BE04FF0010CD7
:100970000CFA00F3B1F800C00CEA03069E4220D145
:1009800083004FF00F0C0CFA03F7BC4305FA03FC8D
:100990004CEA040491F803C0BCF1280F06D14FF0D3
:1009A000010C0CFA00FCC2F814C00AE091F803C074
:1009B000BCF1480F05D14FF0010C0CFA00FCC2F855
:1009C00010C0401C0828D1D31460B1F800C0BCF19D
:1009D000FF0F34DD546800202EE000F1080C4FF0CA
:1009E000010808FA0CF3B1F800C00CEA03069E42B5
:1009F00021D183004FF00F0C0CFA03F7BC4305FA2A
:100A000003FC4CEA040491F803C0BCF1280F05D1A3
:100A100000F1080C08FA0CF8C2F8148091F803C031
:100A2000BCF1480F07D100F1080C4FF0010808FA9B
:100A30000CF8C2F81080401C0828CED35460BDE8E2
:100A4000F0814FF6FF710180022181700421C17095
:100A500070470246002093680B400BB1012000E074
:100A6000002070470146886880B270470246002027
:100A7000D3680B400BB1012000E000207047014615
:100A8000C86880B2704701617047416170470AB120
:100A9000016100E041617047C16070474FF48032EE
:100AA0000A4382618161826182698269704702467C
:100AB0000020434B18684FF68073184040EA02103C
:100AC00008433F4B186070473E49C8617047F0B516
:100AD0000A46002300240021002500F00046B6F15C
:100AE000004F02D1364EF16901E0354E7168C0F316
:100AF000034583B200F44016B6F5401F08D121F03B
:100B000070612F4E766826F070662D4F7E6012E081
:100B100000F48016B6F5801F06D1032606FA05F408
:100B2000A14341F0706106E0460D360103FA06F676
:100B3000B14341F0706122B1460D360103FA06F669
:100B4000314300F00046B6F1004F02D11C4EF16176
:100B500001E01B4E7160F0BD30B500228B071C0F09
:100B60000F2303FA04F2164B08338C1053F8243089
:100B70009343134C08348D1044F8253023468C10D1
:100B800053F824308C07240F00FA04F423430C4C50
:100B900008348D1044F8253030BD0A49DC31086036
:100BA0007047000000080140000C014000100140A7
:100BB0000014014000180140001C014000200140C9
:100BC0000000014000002042DF48006840F00100C2
:100BD000DD49086008464068DC490840DA49486059
:100BE00008460068DA490840D749086008460068A6
:100BF00020F4802008600846406820F4FE00486029
:100C00004FF41F0088607047CF49096821F4803194
:100C1000CD4A11601146096821F480211160B0F5B8
:100C2000803F03D0B0F5802F0ED106E0C649096899
:100C300041F48031C44A116007E0C349096841F4B6
:100C4000A021C14A116000E000BF00BF704710B58D
:100C500001460022002300204A11012A02D1BA4C89
:100C6000236806E0022A02D1B74C236A01E0B64CA1
:100C7000636A01F01F02012494401C400CB1012062
:100C800000E0002010BD38B50020009000240025B1
:100C900000BF3120FFF7DBFF05460098401C0090A5
:100CA0000098B0F5A06F01D0002DF2D03120FFF7F1
:100CB000CEFF08B1012400E00024204638BD0146E3
:100CC0000020A14A106820F0F80040EAC10010603E
:100CD0007047A04908607047024600209A4B586848
:100CE00020F47C1042EA01031843974B5860704788
:100CF00098490866704701460020934A506820F0E2
:100D000003000843506070478F48406800F00C00B3
:100D10007047014600208C4A506820F0F0000843DC
:100D20005060704701460020874A506820F4E06018
:100D300008435060704701460020834A506820F401
:100D4000605040EAC1005060704729B17E4A527A33
:100D500002437D4B5A7204E07B4A527A82437A4BBB
:100D60005A7270477B49D8310860704701460020AD
:100D7000754A506820F44040084350607047002195
:100D8000714A20321170704A82F82010012802D076
:100D900004280AD104E001216B4A2032117005E0D9
:100DA0000521694A2032117000E000BF00BF704782
:100DB0006949086070476449096A0143624A1162DF
:100DC0007047654944390860704730B500210022FA
:100DD000002400235C4D6D6805F00C0121B104294D
:100DE00005D0082923D105E05C4D056022E05B4D6C
:100DF00005601FE0544D6D6805F47012524D6D682A
:100E000005F48034022505EB92421CB9544D55433C
:100E100005600BE04C4D6D6805F400351DB1504D7B
:100E20005543056002E04D4D5543056002E04B4DD2
:100E3000056000BF00BF444D6D6805F0F001090971
:100E4000484D6B5C0568DD4045603F4D6D6805F4BD
:100E5000E061090A434D6B5C4568DD4085603A4DB1
:100E60006D6805F46051C90A3E4D6B5C4568DD4014
:100E7000C560354D6D6805F44041890B3A4D6B5C9A
:100E8000C568B5FBF3F5056130BD29B12E4A52693D
:100E900002432D4B5A6104E02B4A526982432A4B8C
:100EA0005A61704729B1284A92690243264B9A61D8
:100EB00004E0254A92698243234B9A61704729B125
:100EC000214AD2690243204BDA6104E01E4AD2690A
:100ED00082431D4BDA61704729B11B4AD268024335
:100EE000194BDA6004E0184AD2688243164BDA6084
:100EF000704729B1144A12690243134B1A6104E086
:100F0000114A12698243104B1A61704712494039E5
:100F1000086070470F49C86470470B49C871704733
:100F20000948406A40F080700749486270470146AE
:100F30000020054A92680A400AB1012000E0002022
:100F40007047014988727047001002400000FFF8A6
:100F5000FFFFF6FE000042428004424200127A0087
:100F600000093D00180000202800002010B50446AC
:100F7000FB48844209D101218803FFF7ADFF00211E
:100F80004FF48040FFF7A8FF32E0F648844209D1D1
:100F900001214804FFF7ADFF00214FF40030FFF7B7
:100FA000A8FF25E0F048844209D101218804FFF719
:100FB000A0FF00214FF48020FFF79BFF18E0EB48D3
:100FC000844209D10121C804FFF793FF00214FF4A7
:100FD0000020FFF78EFF0BE0E548844208D1012195
:100FE0000805FFF786FF00214FF48010FFF781FF0F
:100FF00010BD2DE9F04786B005460E460024A246F6
:1010000000BFA1460027B08900B100BF2F462C8A3F
:101010004CF6FF700440F08804432C82AC894EF6F5
:10102000F3100440B08831890843718908430443B0
:10103000AC81AC8A4FF6FF400440B0890443AC82D7
:1010400001A8FFF7C2FEC648874202D1DDF810A012
:1010500001E0DDF80CA0A88900F4004040B10AEBE3
:10106000CA0000EB0A1031684900B0FBF1F807E054
:101070000AEBCA0000EB0A1031688900B0FBF1F8F6
:101080006420B8FBF0F004012009642101FB108901
:10109000A88900F4004040B1322000EBC900B0FB49
:1010A000F1F000F00700044308E0322000EB0910E3
:1010B0006421B0FBF1F000F00F0004432C8106B076
:1010C000BDE8F0874FF41651016000218180C18096
:1010D00001810C21418100218181704710B50246B8
:1010E0000020108A4FF2FF0318400B884C882343DE
:1010F0008C882343CC8823431843108210BD0021E1
:10110000018041808180C180704721B1828942F491
:101110000052828104E082894DF6FF731A40828179
:101120007047F0B50346002400260025002040F655
:101130006A17B94200D100BF1846C1F3421401F04A
:101140001F06012707FA06F5012C01D10C3004E037
:10115000022C01D1103000E014301AB107682F437F
:10116000076002E00768AF430760F0BD1AB1838AE9
:101170000B43838202E0838A8B4383827047028A17
:101180004FF6F0731A400282028A0A4302827047C5
:1011900082894FF2FF731A40828182890A438281D9
:1011A000704721B1828942F00202828104E0828983
:1011B0004FF6FD731A4082817047028A4FF6DF7343
:1011C0001A400282028A0A430282704721B1028ACF
:1011D00042F48042028204E0028A4BF6FF731A4016
:1011E00002827047C1F308028280704701468888F6
:1011F000C0F308007047818941F001018181704787
:10120000028BD2B20283028B42EA01220283704730
:10121000028B02F47F420283028B0A4302837047EF
:1012200021B1828A42F02002828204E0828A4FF653
:10123000DF731A408282704721B1828A42F0100225
:10124000828204E0828A4FF6EF731A4082827047EE
:1012500021B1828A42F00802828204E0828A4FF63B
:10126000F7731A408282704721B1828942F40042AA
:10127000828103E08289C2F30E028281704721B12C
:10128000828A42F40062828204E0828A4FF2FF7313
:101290001A4082827047828A4FF6FB731A4082821C
:1012A000828A0A438282704721B1828A42F0020216
:1012B000828204E0828A4FF6FD731A408282704770
:1012C00002460020B1F5007F00D100BF13880B401B
:1012D0000BB1012000E00020704701F40072B2F56C
:1012E000007F00D100BFCA430280704770B502463C
:1012F000002400230025002040F66A16B14200D1E8
:1013000000BFC1F3421501F01F03012606FA03F3E3
:10131000012D02D19689334006E0022D02D1168AB2
:10132000334001E0968A33400C12012606FA04F499
:101330001688344013B10CB1012000E0002070BDCC
:1013400010B50022002340F66A14A14200D100BF6C
:101350000A1201249440A3B2DC43048010BD0000B3
:10136000003801400044004000480040004C00406C
:101370000050004031490143314A1160704770B557
:10138000002100230F22C47804B32D4C246804F4F8
:10139000E064C4F5E064210AC1F10403CA40447862
:1013A00004FA03F18478144021430901254C06789E
:1013B000A155047804F01F050124AC4005786D1197
:1013C000AD0005F1E025C5F8004109E0047804F01E
:1013D0001F050124AC401C4D0678761145F82640C7
:1013E00070BD1A4A0A400243154B1B1F1A60704712
:1013F00039B1134A121D12680243114B1B1D1A60AA
:1014000006E00F4A121D126882430D4B1B1D1A6025
:101410007047042808D14FF0E021096941F0040128
:101420004FF0E022116107E04FF0E021096921F05F
:1014300004014FF0E0221161704700000000FA053E
:101440000CED00E000E400E080E100E080FFFF1F21
:10145000002044490860091D0860091D0860091D35
:10146000086041483F4914310860704700213D49F8
:101470008279002A3AD00A46126803689A430B46DA
:101480001A600A1D126803689A430B1D1A600279DC
:1014900011440A6803681A430A60324A0832126823
:1014A00003689A432F4B08331A601A1D12680368A9
:1014B0009A432C4B0C331A604279102A0ED11A1F12
:1014C000126803681A43274B08331A601A1D126802
:1014D00003681A43234B0C331A600DE0214942790B
:1014E00011440A6803681A430A6005E0027911444E
:1014F0000A6803689A430A6070470021016001711D
:101500000C21417100218171704716491031096821
:101510000143144A10321160704701460020114AFD
:10152000143212680A400AB1012000E0002070471E
:101530000C49143108607047014600200022094B15
:101540001B6803EA0102074B14331B680B4013B1FD
:101550000AB1012000E00020704702491431086000
:101560007047000000040140FFFF0F0010B5044663
:10157000FE48844208D10121C014FFF7ADFC0021D0
:10158000E014FFF7A9FCC4E0B4F1804F08D10121B9
:101590000846FFF7AEFC00210120FFF7AAFCB8E0E7
:1015A000F348844208D101210220FFF7A2FC002168
:1015B0000220FFF79EFCACE0EE48844208D10121F6
:1015C0000420FFF796FC00210420FFF792FCA0E026
:1015D000E948844208D101210820FFF78AFC002154
:1015E0000820FFF786FC94E0E448844208D10121FA
:1015F0001020FFF77EFC00211020FFF77AFC88E026
:10160000DF48844208D101212020FFF772FC00212D
:101610002020FFF76EFC7CE0DA48844208D10121EB
:101620004014FFF759FC00216014FFF755FC70E0EF
:10163000D548844209D10121C804FFF74DFC00219F
:101640004FF40020FFF748FC63E0D048844209D102
:1016500001210805FFF740FC00214FF48010FFF73F
:101660003BFC56E0CA48844209D101214805FFF7F6
:1016700033FC00214FF40010FFF72EFC49E0C54871
:10168000844208D101214020FFF733FC0021402093
:10169000FFF72FFC3DE0C048844208D101218020A3
:1016A000FFF727FC00218020FFF723FC31E0BB4837
:1016B000844208D101218015FFF71BFC0021A015F1
:1016C000FFF717FC25E0B648844209D10121080440
:1016D000FFF702FC00214FF48030FFF7FDFB18E01C
:1016E000B048844209D101214804FFF7F5FB0021ED
:1016F0004FF40030FFF7F0FB0BE0AB48844208D119
:1017000001218804FFF7E8FB00214FF48020FFF758
:10171000E3FB10BD00220288944B98420ED0994BF7
:1017200098420BD0B0F1804F08D0914B984205D031
:10173000904B984202D0904B984204D14FF68F7351
:101740001A404B881A438D4B984207D08C4B9842D5
:1017500004D04FF6FF431A40CB881A4302808B888F
:1017600083850B880385814B98420BD0854B98422B
:1017700008D08B4B984205D08A4B984202D08A4BB6
:10178000984201D10B7A038601238382704770B59A
:10179000002400220023058C4FF6FE763540058498
:1017A000028C8388048B4FF68F752C40B51E2C401D
:1017B0000D882C43751E2A400D892A434D882A43E3
:1017C0006A4DA8420BD06F4DA84208D0744DA84274
:1017D00005D0744DA84202D0734DA84213D14FF6E4
:1017E000F7752A404D892A434FF6FB752A408D88AC
:1017F0002A434FF6FF652B404FF6FF552B408D894E
:101800002B43CD892B4383800483CD888586028436
:1018100070BD70B5002400220023058C4FF6EF76D2
:1018200035400584028C8388048B48F6FF752C4074
:101830004FF6FF452C400D884FF6FF7606EA05254A
:101840002C434FF6DF752A400D8906EA05152A4319
:101850004D8806EA05152A43444DA84202D0494D59
:10186000A8421DD14FF67F752A404D894FF6FF766D
:1018700006EA05152A434FF6BF752A408D8806EA09
:1018800005152A434FF6FF352B404FF2FF752B40CD
:101890008D8906EA85052B43CD8906EA85052B430C
:1018A00083800483CD880587028470BD70B50024D1
:1018B00000220023058C4FF6FF6635400584028C1C
:1018C0008388848B4FF68F752C404FF6FC752C4027
:1018D0000D882C434FF6FF552A400D894FF6FF76B1
:1018E00006EA05252A434D8806EA05252A431F4DA9
:1018F000A84202D0234DA8421DD14FF2FF752A40C5
:101900004D894FF6FF7606EA05252A434FF6FF3547
:101910002A408D8806EA05252A434EF6FF752B409E
:101920004DF6FF752B408D8906EA05152B43CD89B1
:1019300006EA05152B4383808483CD88858702843E
:1019400070BD70B5002200230024058C4EF6FF7692
:1019500035400584038C8488828B48F6FF752A40C5
:101960004FF6FF452A400D8820E00000002C014082
:101970000004004000080040000C0040001000403F
:101980000014004000340140004C01400050014070
:101990000054014000180040001C0040002000409E
:1019A0000040014000440140004801404FF6FF76EE
:1019B00006EA05252A434DF6FF752B400D8906EAF8
:1019C00005352B434D8806EA05352B43FA4DA842D1
:1019D00002D0FA4DA84208D14BF6FF752C408D89F4
:1019E0004FF6FF7606EA85152C4384808283CD88E6
:1019F000A0F84050038470BD828B4FF2FF331A4031
:101A00008283828B4FF6FF7303EA01231A4382839A
:101A10007047F0B50C461546002200210026078CC1
:101A20004EF6FF7C07EA0C070784828B018C4FF689
:101A3000FF7707EA043640F6FF473A404FF6FF7754
:101A400007EA05273A434FF6FF7707EA03373A4399
:101A5000D94FB8420ED0D94FB8420BD0B0F1804F19
:101A600008D0D74FB84205D0D64FB84202D0D64F93
:101A7000B84206D14DF6FF77394046F480573943D6
:101A800005E047F6FF57394044F4805739438283D5
:101A90000184F0BD828B4FF6F3731A408283828BF0
:101AA0000A4382837047F0B50C4615460022002198
:101AB0000026078C4FF6FF6C07EA0C070784828B21
:101AC000018C4FF6FF7707EA04264FF60C773A4071
:101AD0004FF6FF7707EA03172F433A43B64FB84252
:101AE0000ED0B64FB8420BD0B0F1804F08D0B44FF3
:101AF000B84205D0B34FB84202D0B34FB84206D176
:101B00004FF6FF57394046F48077394305E04FF2EE
:101B1000FF57394044F48077394382830184F0BD14
:101B2000028B4FF2FF331A400283028B4FF6FF7392
:101B300003EA01231A4302837047F0B50C461546A9
:101B4000002200210026078C4FF6EF7C07EA0C07E5
:101B50000784028B018C4FF6FF7707EA041640F6E4
:101B6000FF473A404FF6FF7707EA03373A434FF60D
:101B7000FF7707EA05273A438F4FB8420ED08F4FC1
:101B8000B8420BD0B0F1804F08D08D4FB84205D08D
:101B90008C4FB84202D08C4FB84206D14FF6DF7757
:101BA000394046F01007394305E04FF65F7739407A
:101BB00044F01007394302830184F0BD028B4FF6D5
:101BC000F3731A400283028B0A4302837047F0B515
:101BD0000C46154600220021068C4FF6FE773E404B
:101BE0000684028B018C4FF60C7632407E1C06EA8E
:101BF00003162E433243704EB0420ED06F4EB042A9
:101C00000BD0B0F1804F08D06D4EB04205D06D4E74
:101C1000B04202D06C4EB04206D14FF6FD76314054
:101C200044F00106314305E04FF6F576314044F0CB
:101C30000106314302830184F0BD70B505460C46B0
:101C40005D4885420ED05D4885420BD0B5F1804F8E
:101C500008D05B48854205D05A48854202D05A4890
:101C6000854200D100E000BF208850B92389A288B6
:101C700061882846FFF7ABFFE1882846FFF79EFF03
:101C800025E0208804280AD12389A2886188284673
:101C9000FFF753FFE1882846FFF742FF17E020884F
:101CA00008280AD12389A28861882846FFF7FBFE0D
:101CB000E1882846FFF7EEFE09E02389A2886188C3
:101CC0002846FFF7A6FEE1882846FFF795FE70BD7F
:101CD0002DE9F04105460C4600260127608808B929
:101CE000022600E00026A088012801D1022700E09A
:101CF00001272088A0B92389A28861882846FFF798
:101D000066FFE1882846FFF759FF23893A463146A6
:101D10002846FFF712FFE1882846FFF701FF13E08E
:101D20002389A28861882846FFF707FFE1882846B3
:101D3000FFF7F6FE23893A4631462846FFF747FF6C
:101D4000E1882846FFF73AFFBDE8F0810A884B8812
:101D50001A438B881A43CB881A430B891A434B8941
:101D60001A438B891A43A0F8442070474FF6FF713D
:101D7000818000210180C180418001727047002173
:101D8000018041808180C180018141818181C18147
:101D90007047002101804180012181800021C180A4
:101DA000018170470021018041808180C1800181D3
:101DB0004181818170470000002C014000340140C6
:101DC0000004004000080040000C004021B10288DF
:101DD00042F00102028004E002884FF6FE731A40CE
:101DE0000280704731B1B0F8442042F40042A0F8BC
:101DF000442005E0B0F84420C2F30E02A0F84420CD
:101E000070471AB183890B43838102E083898B4336
:101E1000838170478182704741EA0203A0F848300D
:101E200070471AB183890B43838102E083898B4316
:101E30008381704701894FF6F87211400181704724
:101E40000A46002101894FF68F7319401143018121
:101E5000704730B504460D4629462046FFF7F0FF8F
:101E6000208940F00700208130BD2DE9F041044673
:101E70000D4616461F46602D06D13B4601223146CF
:101E80002046FFF75AFE05E03B4601223146204638
:101E9000FFF79DFE29462046FFF7D2FF208940F03C
:101EA00007002081BDE8F08130B50C460021018992
:101EB000C9B24FF6FF7505EA0325154325432943AB
:101EC000018130BD2DE9F04105460E461746984682
:101ED000002443463A4631462846FFF7E5FF2C8961
:101EE0004FF6F870044044F007044FF68F7004403A
:101EF00044F070042C81BDE8F081F0B504460D4635
:101F000016461F463B46324629462046FFF7CCFF81
:101F1000208940F480402081F0BD01858282704795
:101F20000A46002101884FF68F7319401143018042
:101F30007047F0B50C4615461E46002100220023CE
:101F40000189028B038C4FF6F877394021434FF615
:101F5000FC473A4040F201173A434FF6DD773B40E9
:101F60004FF6FF7707EA06172F433B4301810283B1
:101F70000384F0BD0A460021018B4FF68F73194090
:101F80001143018370470A460021018B48F6FF7315
:101F900019404FF6FF7303EA022319430183704788
:101FA0000A460021818B4FF68F73194011438183BC
:101FB00070470A460021818B48F6FF7319404FF69F
:101FC000FF7303EA022319438183704721B102881A
:101FD00042F08002028004E002884FF67F731A40CC
:101FE0000280704721B1828842F00402828004E0BE
:101FF00082884FF6FB731A408280704721B1828835
:1020000042F00802828004E082884FF6F7731A409B
:102010008280704721B1828842F00102828004E010
:1020200082884FF6FE731A40828070470A4600216C
:10203000018B4FF6F77319401143018370470A462D
:102040000021018B4FF2FF7319404FF6FF7303EA33
:1020500002231943018370470A460021818B4FF602
:10206000F77319401143818370470A460021818B21
:102070004FF2FF7319404FF6FF7303EA022319432F
:10208000818370470A460021018B4FF6FB7319408C
:102090001143018370470A460021018B4FF6FF333D
:1020A00019404FF6FF7303EA022319430183704777
:1020B0000A460021818B4FF6FB731940114381833F
:1020C00070470A460021818B4FF6FF3319404FF6C7
:1020D000FF7303EA02231943818370470A460021F4
:1020E000018B4FF67F7319401143018370470A46F5
:1020F0000021018BC1F30E014FF6FF7303EA0223A7
:102100001943018370470A460021818B4FF67F7384
:1021100019401143818370470A460021818BC1F326
:102120000E014FF6FF7303EA0223194381837047C0
:102130000A460021018C4FF6FD73194011430184BA
:1021400070470A460021018C4FF6F773194011437E
:10215000018470470A460021018C4FF6DF73194055
:102160004FF6FF7303EA02131943018470470A46CE
:102170000021018C4FF67F7319404FF6FF7303EA7D
:1021800002131943018470470A460021018C4FF65F
:10219000FF5319404FF6FF7303EA022319430184EA
:1021A00070470A460021018C4FF2FF7319404FF629
:1021B000FF7303EA02231943018470470A46002192
:1021C000018C4DF6FF7319404FF6FF7303EA02339B
:1021D00019430184704730B5002301248C40A3B219
:1021E000048C9C430484048C02FA01F5ADB22C43A8
:1021F000048430BD30B5002304248C40A3B2048C89
:102200009C430484048C02FA01F5ADB22C4304848F
:1022100030BD70B503460020002418461830012553
:102220008D40ACB21D8CA5431D8409B1082909D18C
:1022300000EB6100056825F0700505600568154331
:1022400005600EE00D1FC5F34E052844056825F412
:10225000E045056005684FF6FF7606EA022635433D
:10226000056070BD21B1028842F00202028004E0E4
:1022700002884FF6FD731A400280704721B1028830
:1022800042F00402028004E002884FF6FB731A4019
:102290000280704721B1828842F08002828004E08F
:1022A00082884FF67F731A408280704702884FF60B
:1022B000F7731A40028002880A43028070478288BE
:1022C0004FF68F731A40828082880A43828070475B
:1022D00002894FF6F8731A40028102890A4302818B
:1022E000704702894FF67F731A40028102890A43C0
:1022F000028170478184704781857047818670476D
:102300000187704781877047A0F8401070470288A6
:102310004FF6FF431A40028002880A43028070474A
:102320000146888E70470146088F70470146888FA6
:1023300070470146B1F8400070470146888C7047ED
:102340000146088D704702460020138A0B400BB1EE
:10235000012000E000207047CA430282704730B578
:102360000246002000230024158A05EA010395890E
:1023700005EA010413B10CB1012000E0002030BDDA
:10238000CA4302827047000010B50446FA488442EE
:1023900008D101214015FEF79FFD00216015FEF7D1
:1023A0009BFD17E0F548844208D101210015FEF796
:1023B00093FD00212015FEF78FFD0BE0F0488442CD
:1023C00008D10121C803FEF787FD00214FF400402A
:1023D000FEF782FD10BD30B5024600200023506894
:1023E000E84C20400D790C6844EA052420435060F5
:1023F0009068E54C2040D1E902542C434D7944EAE1
:10240000450420439060D06A20F470000C7C641E68
:10241000E4B2234340EA0350D06230BD00210160A2
:10242000017141718160C16001210174704721B166
:10243000826842F00102826003E0826822F00102B9
:102440008260704721B1826842F48072826003E04A
:10245000826822F480728260704710B50023CBB28C
:102460001AB144681C43446002E044689C434460E1
:1024700010BD816841F0080181607047014600206D
:102480008A6802F008020AB1012000E000207047CB
:10249000816841F0040181607047014600208A682C
:1024A00002F004020AB1012000E00020704721B1CF
:1024B000826842F4A002826003E0826822F4A002F3
:1024C00082607047014600208A6802F480020AB1E7
:1024D000012000E00020704710B50A4600210023CB
:1024E000416821F46041531E41EA4331416010BD0F
:1024F00021B1426842F40062426003E0426822F483
:10250000006242607047F0B504460D46002000218D
:10251000092D11DDE068A5F10A0606EB460707263E
:1025200006FA07F18843A5F10A0606EB460603FA08
:1025300006F10843E0600CE0206905EB450707263B
:1025400006FA07F1884305EB450603FA06F108434E
:102550002061072A0FDA606B561E06EB86071F26DE
:1025600006FA07F18843561E06EB860605FA06F1C1
:102570000843606322E00D2A0FDA206BD61F06EBBA
:1025800086071F2606FA07F18843D61F06EB860644
:1025900005FA06F10843206310E0E06AA2F10D0697
:1025A00006EB86071F2606FA07F18843A2F10D06FF
:1025B00006EB860605FA06F10843E062F0BD21B19C
:1025C000826842F48012826003E0826822F4801202
:1025D000826070470146C86C80B2704766484C30D4
:1025E0000068704721B1426842F48062426003E0B3
:1025F000426822F480624260704721B1426842F42E
:102600008052426003E0426822F480524260704788
:102610000A460021816821F4E0411143816070473E
:1026200021B1826842F40042826003E0826822F4B1
:1026300000428260704721B1826842F402128260D7
:1026400003E0826822F40212826070470146002093
:102650008A6802F400120AB1012000E000207047ED
:10266000F0B504461546002000220026092911DD98
:10267000E068A1F10A0707EB470C072707FA0CF2FD
:102680009043A1F10A0707EB470703FA07F210434B
:10269000E0600CE0206901EB410C072707FA0CF21F
:1026A000904301EB410703FA07F210432061A06B4E
:1026B000C0F30156EF1C06F1010CA7EB0C0707EB6A
:1026C000870C1F2707FA0CF29043EF1C06F1010C50
:1026D000A7EB0C0707EB870701FA07F21043A0638B
:1026E000F0BD10B50A4600210023816B21F4401192
:1026F000531E41EA0351816310BD08B500230093C6
:102700000090009B0B440093009B1A6008BD08B525
:10271000024600200090009201F12800009B18441E
:1027200000900098006880B208BD0A460021416808
:10273000164B1940114341607047416282627047F5
:102740000A460021416821F01F0111434160704792
:1027500040B109490831096841F40001064A0832CC
:10276000116007E004490831096821F40001024AB8
:102770000832116070470000002401400028014029
:10278000003C0140FFFEF0FFFDF7F1FFFFFD3FFFC2
:102790000246002013680B400BB1012000E000202E
:1027A0007047CA430260704770B50246002000239C
:1027B00000240B125568CEB205EA060415681D40C8
:1027C00015B10CB1012000E0002070BD00220A12FA
:1027D000D34303607047000029B1504A1288024376
:1027E0004E4B1A8004E04D4A128882434B4B1A80AC
:1027F00070474A48001D008840F010004749091DF5
:10280000088070474548001D00884FF6EF7108406A
:102810004249091D08807047002140481C3001884A
:10282000001F008841EA0040704700B50246FFF7EC
:10283000E0FF100C394918310880091D0A80FFF7A4
:10284000E1FF00BD00B50246FFF7D3FFC2F303402E
:10285000324908310880091D0A80FFF7D3FF00BD07
:1028600000B50246FFF7C5FF100C2C492031088047
:10287000091D0A80FFF7C6FF00BD0020274910315F
:1028800009880907080B254914310988084370474E
:1028900000BF2248001D008800F020000028F8D06A
:1028A00070471E48001D00884FF6F77108401B490D
:1028B000091D088000BF1948001D008800F00800AD
:1028C0000028F8D0704701460020144A121D1288D3
:1028D0000A400AB1012000E0002070470F49091D9D
:1028E000098881430D4A121D11807047014600205E
:1028F0000A4A121D12880A40D0B2084A12880A40B9
:1029000012B108B1012000E0002070470349091D01
:1029100009888143014A121D118070470028004038
:1029200030B943F2DB028100A1F1C0410A6005E049
:1029300043F2D2028100A1F1C0410A606FF07042FF
:10294000411C8900A1F1C0410A608100A1F1C04190
:10295000C1F80421704710280AD118214FF02042F5
:102960001166402151664FF0FC319166D16610E04E
:102970001821F74A116040214FF02042C2F884101C
:102980004FF0FC31F24A083211604FF02042C2F899
:102990008C1070471820EE4920310860002009068D
:1029A000C1F8A4004FF0FC30E94928310860091D46
:1029B0000860091D08607047D0E901121143C26820
:1029C0001143026911434269114382691143C2698B
:1029D0001143026A1143426A1143826A1143C26A77
:1029E0001143026B114302689200A2F1C0421160D0
:1029F000816808290BD101688900A1F1C0410968EB
:102A000041F0400201688900A1F1C0410A60416BB8
:102A10000968426B526841EA0211426B926841EACE
:102A20000221426B928941EA0241426B128A41EAD9
:102A30000251426B127D41EA0261426B926911437D
:102A40000268521C9200A2F1C0421160C16AB1F545
:102A5000804F1BD1816B0968826B526841EA021179
:102A6000826B926841EA0221826B128A41EA02512A
:102A7000826B127D41EA0261826B926911430268A6
:102A80009200A2F1C042C2F8041107E06FF0704258
:102A900001688900A1F1C041C1F80421704730B537
:102AA000002100220023446844F0080485682C4378
:102AB000C5682C4305692C43456944EA452485696A
:102AC00044EA4531C4692468C5696D6844EA05244F
:102AD000C5692D8944EA0544C5692D7B44EA056230
:102AE000046A2468056A6D6844EA0524056A2D892C
:102AF00044EA0544056A2D7B44EA05630468102C0A
:102B000005D14FF020442166A266E36608E0904CB0
:102B100021604FF02044C4F888208D4C0C34236091
:102B200030BD016841F01001426841EA42218268EB
:102B300041EA4231864A20321160C1680968C268A0
:102B4000526841EA0221C268128941EA0241C26820
:102B5000127B41EA02617E4A2832116001690968EC
:102B60000269526841EA02210269128941EA02417E
:102B70000269127B41EA0261754A2C321160416997
:102B800009684269526841EA02214269128941EAB0
:102B900002414269127B41EA02614FF02042C2F8D1
:102BA000B010704700210160022141600021816066
:102BB000C160016141618161C16101624FF4805175
:102BC0004162490081620021C16201630F21426BB1
:102BD0001160426B5160FF21426B91600F21426B8B
:102BE000D160426B1161426B51610021426B916176
:102BF0000F21826B1160826B5160FF21826B9160AB
:102C00000F21826BD160826B1161826B5161002157
:102C1000826B9161704710210160002141608160E9
:102C2000C160016141618161FC21C2691160C269B9
:102C30005160C2699160C269D160026A1160026A22
:102C40005160026A9160026AD160704700210160A0
:102C500041608160FC21C2681160C2685160C26835
:102C60009160C268D16002691160026951600269B5
:102C700091600269D16042691160426951604269A4
:102C800091604269D160704751B18200A2F1C042A7
:102C9000126842F001038200A2F1C042136009E011
:102CA0008200A2F1C04212682A4B1A408300A3F1AD
:102CB000C0431A60704799B1102808D14FF02042E4
:102CC000126E42F004024FF020431A661DE0204AC3
:102CD000126842F004024FF02043C3F8802014E051
:102CE000102809D14FF02042126E1A4BDB1E1A40F9
:102CF0004FF020431A6608E0154A1268154BDB1E98
:102D00001A404FF02043C3F88020704748B1104963
:102D10002031096841F004014FF02042C2F8A010B0
:102D200009E00B49203109680A4AD21E11404FF0D0
:102D30002042C2F8A0107047B9B110280CD14FF052
:102D40002042126E42F040024FF020431A661FE00C
:102D5000800000A0FEFF0F00724A126842F040029D
:102D60004FF02043C3F8802012E0102808D14FF024
:102D70002042126E6C4B1A404FF020431A6607E057
:102D8000684A1268684B1A404FF02043C3F880200D
:102D9000704701460020102903D14FF02042506FA8
:102DA00002E0604A14321068704710B5F2B1102882
:102DB00007D14FF020435B6E0B434FF02044636616
:102DC00032E0B0F5807F08D1564B1B1D1B680B43CA
:102DD0004FF02044C4F8843026E0524B24331B6863
:102DE0000B434FF02044C4F8A4301DE0102807D155
:102DF0004FF020435B6E8B434FF02044636613E03B
:102E0000B0F5807F08D1474B1B1D1B688B434FF0EB
:102E10002044C4F8843007E0424B24331B688B43C2
:102E20004FF02044C4F8A43010BD10B50246002075
:102E30000023102A03D14FF02044636E09E0B2F55D
:102E4000807F03D1374C241D236802E0354C2434A5
:102E5000236803EA01040CB1012000E0002010BD4A
:102E6000102807D14FF02042526E8A434FF0204382
:102E70005A6613E0B0F5807F08D12A4A121D126805
:102E80008A434FF02043C3F8842007E0254A2432C8
:102E900012688A434FF02043C3F8A420704770B5EE
:102EA00002460020002300240025102A03D14FF001
:102EB0002046736E09E0B2F5807F03D1194E361DAE
:102EC000336802E0174E2436336803EA010403EA4C
:102ED000D10514B10DB1012000E0002070BD102813
:102EE00008D14FF02042526E22EAD1024FF0204327
:102EF0005A6615E0B0F5807F09D10A4A121D1268A2
:102F000022EAD1024FF02043C3F8842008E0054AAA
:102F10002432126822EAD1024FF02043C3F8A420E1
:102F200070470000800000A0BFFF0F0008B5FDF74C
:102F3000FCFB01211020FDF7B5FF4FF6FF70ADF847
:102F4000000010208DF8030003208DF80200694670
:102F50002D48FDF7EBFCFF212B48FDF79DFD08BD3B
:102F600010B54FF6FF712848FDF78DFD2748FDF796
:102F700067FB4FF6FF712448FDF787FD2348FDF7F7
:102F80005FFB10BD10B500240BE00120A040C04342
:102F900081B21D48FDF780FD1D48FDF751FB601C07
:102FA000C4B2082CF1DB00240BE080202041C04398
:102FB00081B21548FDF770FD1548FDF741FB601C17
:102FC000C4B2082CF1DB00240BE01120A040C04368
:102FD00081B20D48FDF760FD0D48FDF731FB601C27
:102FE000C4B2042CF1DB00240BE088202041C04354
:102FF00081B20548FDF750FD0548FDF721FB601C37
:10300000C4B2042CF1DB10BD00100140808D5B00C8
:1030100080841E00014601EBC1024FF0E0235A619B
:1030200001221A6100229A6100BF4FF0E02210696C
:1030300000F001021AB100F48032002AF5D000221B
:103040004FF0E0231A619A617047014642F228323C
:103050004A434FF0E0235A6101221A6100229A612B
:1030600000BF4FF0E022106900F001021AB100F435
:103070008032002AF5D000224FF0E0231A619A61D5
:1030800070470000014600BF704700BF2F4A1288FA
:1030900002F04002002AF9D0C2B22C4B1B1D1A804C
:1030A000704700B587B0012144F20500FDF7FAFE34
:1030B0004FF40070ADF8180003208DF81A001820A6
:1030C0008DF81B0006A92248FDF730FC4FF4806004
:1030D000ADF8180004208DF81B0006A91C48FDF768
:1030E00025FC4FF4C060FEF745F925208DF814004B
:1030F00000208DF8150001208DF816008DF81700BE
:1031000005A8FEF73CF94FF4165001900020ADF8E9
:103110000800ADF80A00ADF80C00ADF810000C2066
:10312000ADF80E0001A90948FDF763FF012107482A
:10313000FDF7EBFF012240F225510448FDF7F1FFB6
:1031400040210248FEF7C9F807B000BD0038014031
:103150000008014008B501214FF4B070FDF7A2FE50
:1031600003208DF8020041F20100ADF800001820A4
:103170008DF803006946A148FDF7D8FB4FF6337080
:10318000ADF8000069469E48FDF7D0FB4FF6807011
:10319000ADF8000069469B48FDF7C8FB08BD00B5C7
:1031A00097B002200190002002900520039000209B
:1031B00006900490012005900007079006200890D3
:1031C00000200A9010200B900002119080001390B4
:1031D0000020099001A81590169001210802FDF722
:1031E00054FE08A8FFF7E8FB01210620FFF74CFD7D
:1031F00017B000BD8449088070478349891C088046
:10320000704710B5FFF7A6FFFFF7C9FFE920FFF7EA
:10321000F1FF2020FFF7F1FF1120FFF7EBFF4FF444
:10322000FA7401E0601E84B2002CFBDC3A20FFF748
:10323000E1FF5520FFF7E1FFD120FFF7DBFF002082
:10324000FFF7DBFF6520FFF7D8FF1F20FFF7D5FF53
:10325000D020FFF7CFFF0720FFF7CFFF0720FFF7B2
:10326000CCFF8020FFF7C9FF3620FFF7C3FF4820BF
:10327000FFF7C3FFC120FFF7BDFF1020FFF7BDFF21
:103280001020FFF7BAFF0220FFF7B7FF0220FFF779
:10329000B4FFC020FFF7AEFF0020FFF7AEFF3520E0
:1032A000FFF7ABFF0020FFF7A8FF0020FFF7A5FF07
:1032B0000120FFF7A2FF0220FFF79FFFC420FFF7C6
:1032C00099FF0320FFF799FFC520FFF793FF012027
:1032D000FFF793FFD220FFF78DFF0120FFF78DFF4F
:1032E0002220FFF78AFFE720FFF784FF3820FFF74F
:1032F00084FFF320FFF77EFF0820FFF77EFF1220F8
:10330000FFF77BFF1220FFF778FF0820FFF775FF1C
:10331000C820FFF76FFF0120FFF76FFF5220FFF774
:103320006CFF3720FFF769FF1020FFF766FF0D20C5
:10333000FFF763FF0120FFF760FF0420FFF75DFF49
:103340005120FFF75AFF7720FFF757FF0120FFF7C3
:1033500054FF0120FFF751FF0D20FFF74EFF08201B
:10336000FFF74BFF8020FFF748FF0020FFF745FFE6
:103370002920FFF73FFF10BD30B504460D462A2037
:10338000FFF738FF2012FFF738FFE0B2FFF735FFF5
:103390001012FFF732FFD0B2FFF72FFF2B20FFF7FD
:1033A00029FF2812FFF729FFE8B2FFF726FF1812BE
:1033B000FFF723FFD8B2FFF720FF2C20FFF71AFFFB
:1033C00030BD70B5064640F2DF1340F23F120021D7
:1033D0000846FFF7D1FF00240BE0002504E030464B
:1033E000FFF70BFF681C85B2B5F5F07FF7DB601CBB
:1033F00084B2B4F5A07FF0DB70BD00000020014076
:103400000014014000180140FE07006C70B504462E
:103410000D4616462B46224629462046FFF7ACFFAE
:103420003046FFF7EAFE70BD2DE9F04706460F462D
:103430009146984600244D460320A0EB490A52E0ED
:103440001FFA88F27B1999B2331998B2FFF7DEFFA1
:103450001FFA88F27B1B99B2331998B2FFF7D6FF97
:103460001FFA88F27B1999B2331B98B2FFF7CEFF8F
:103470001FFA88F27B1B99B2331B98B2FFF7C6FF85
:103480001FFA88F23B1999B2731998B2FFF7BEFF81
:103490001FFA88F23B1B99B2731998B2FFF7B6FF77
:1034A0001FFA88F23B1999B2731B98B2FFF7AEFF6F
:1034B0001FFA88F23B1B99B2731B98B2FFF7A6FF65
:1034C000BAF1000F06DA2046641C062101EB8000E9
:1034D000824408E02046641C29466D1E401A0A21D9
:1034E00001EB80008244AC42AADDBDE8F08710B554
:1034F0004FF6E0736422C8211046FFF795FF4FF6A0
:10350000E0736322C8216420FFF78EFF4FF6E0735B
:103510006222C8216420FFF787FF4FF6E073612223
:10352000C8216420FFF780FF4FF6E0730522C82111
:103530006420FFF779FF10BD2DE9F05F04460E46C9
:10354000154698463AE02878203800F0FF0A06F140
:103550000F0083B2E01D82B231462046FFF70CFF18
:1035600000271FE0FE4800EB0A1010F807B04FF0EC
:10357000000912E00BF08000802803D14046FFF7DD
:103580003CFE02E00A98FFF738FE4FF6FF7000EAB3
:103590004B0B09F1010000F0FF09B9F1080FE9DB5D
:1035A000781CC7B2102FDDDB6D1C04F1080084B25B
:1035B000E92C03DD002406F1100086B228780028EB
:1035C000C1D1BDE8F09F2DE9FF4F85B081468A4605
:1035D0000020039083460798A0EB09050898A0EB0C
:1035E0000A06CDF80490CDF808A0002D01DD0127D2
:1035F00005E00DB9002702E04FF0FF376D42002EC5
:1036000002DD4FF0010806E016B94FF0000802E0B5
:103610004FF0FF387642B54201DD2C4600E03446DB
:10362000002004901EE0129ADDE90101FFF7EEFE92
:10363000039828440390B3440398A04206DD0398FE
:10364000001B03900198384480B20190A34505DD2A
:10365000ABEB040B0298404480B202900498401CEB
:1036600080B20490611C04988842DCDD09B0BDE89A
:10367000F08F2DE9F04F95B02422BA490CA801F043
:10368000F3F80024B9E1204602F044FFB64AB74BF4
:10369000CDE9000102F052FF0022B54BCDE9020155
:1036A00002F09AFDCDE9040102F080FC0022B14B4A
:1036B000CDE9060102F042FF0022AF4BCDE908013F
:1036C00002F0DAFCCDE90A0102F0DEFE05462046F2
:1036D00002F020FFA44AA54BCDE9000102F02EFF25
:1036E0000022A34BCDE9020102F076FDCDE90401F1
:1036F00002F00EFC00229F4BCDE9060102F01EFFF6
:1037000000229D4BCDE9080103F016F8CDE90A012E
:1037100002F0BAFE0646204602F0FCFE924A934BA7
:10372000CDE9000102F00AFF0022914BCDE9020130
:1037300002F052FDCDE9040102F038FC00228F4B6B
:10374000CDE9060102F0FAFE00228B4BCDE908011B
:1037500002F092FCCDE90A0102F096FE07462046EF
:1037600002F0D8FE804A814BCDE9000102F0E6FE6E
:1037700000227F4BCDE9020102F02EFDCDE90401CC
:1037800002F0C6FB00227D4BCDE9060102F0D6FE19
:103790000022794BCDE9080102F0CEFFCDE90A0104
:1037A00002F072FE80464FF4784008F1640C1FFA74
:1037B0008CF3BAB206F1640C1FFA8CF10090A8B237
:1037C000FFF701FF052094FBF0F100FB11400028FA
:1037D0007DD1204602F09EFE634A644BCDE9000194
:1037E00002F0ACFE0022624BCDE9020102F0F4FCD3
:1037F000CDE9040102F0DAFB0022614BCDE90601BC
:1038000002F09CFE00225C4BCDE9080102F034FC82
:10381000CDE90A0102F038FE0546204602F07AFEA4
:10382000514A524BCDE9000102F088FE0022504B74
:10383000CDE9020102F0D0FCCDE9040102F068FB01
:1038400000224F4BCDE9060102F078FE00224A4BE0
:10385000CDE9080102F070FFCDE90A0102F014FE83
:103860000646204602F056FE3F4A404BCDE9000195
:1038700002F064FE00223E4BCDE9020102F0ACFCF6
:10388000CDE9040102F092FB00223C4BCDE9060198
:1038900002F054FE0022384BCDE9080102F0ECFBA7
:1038A000CDE90A0102F0F0FD0746204602F032FEA3
:1038B0002D4A2E4BCDE9000102F040FE00222C4B98
:1038C000CDE9020102F088FCCDE9040100E092E0BC
:1038D00002F01EFB0022294BCDE9060102F02EFE6C
:1038E0000022254BCDE9080102F026FFCDE90A01AF
:1038F00002F0CAFD80464FF4784008F1640C1FFACC
:103900008CF3BAB206F1640C1FFA8CF10090A8B2E5
:10391000FFF759FE204602F0FDFD134A134BCDE997
:10392000000102F00BFE0022114BCDE9020102F072
:1039300053FCCDE9040102F039FB0022114BCDE923
:10394000060102F0FBFD00220A4BCDE9080102F05E
:1039500093FBCDE90A0102F097FD8146204613E072
:10396000186A0008187000084AD8124DFB21094057
:1039700000003E40000057400000594000405840C1
:10398000004055400000544002F0C4FDFD4AFE4B8B
:10399000CDE9000102F0D2FD0022FC4BCDE902018D
:1039A00002F01AFCCDE9040102F0B2FA0022F84B51
:1039B000CDE9060102F0C2FD0022F64BCDE9080177
:1039C00002F0BAFECDE90A0102F05EFD8246052052
:1039D00094FBF0F000EB40000CA900EB010B002081
:1039E0000AF1640291B200901FFA89F04FF6E07379
:1039F0005A46FFF7A1FD601CC4B23C2CFFF643AE53
:103A000015B0BDE8F08F2DE9F74F92B08946924688
:103A1000504602F068FD0746DA4ADB4B02F08EFDA5
:103A20000022DD4BCDE9040102F0D6FBCDE908010F
:103A3000484602F058FD0746D24AD34B02F07EFDBD
:103A40000022D64BCDE9000102F0C6FBCDE904010E
:103A5000129802F048FD0746CA4ACB4B02F06EFDB1
:103A60000022CF4BCDE9000102F0B6FBCDE9020107
:103A7000DDE9042302F000FBCDE90601DDE90823BE
:103A800002F0FAFACDE90A0102F090FA0022C54BE1
:103A9000CDE90C0102F052FDCDE90E0102F0F4FC7B
:103AA0008346504602F01FFD0746B64AB64B02F069
:103AB00045FD0022B84BCDE9040102F08DFBCDE9B4
:103AC0000801484602F00FFD0746AE4AAE4B02F031
:103AD00035FD0022B14BCDE9000102F07DFBCDE9BF
:103AE0000401129802F0FFFC0746A64AA64B02F01A
:103AF00025FD0022AA4BCDE9000102F06DFBCDE9C6
:103B00000201DDE9042302F0B7FACDE90601DDE99F
:103B1000082302F0B1FACDE90A0102F0F9F9002216
:103B2000A04BCDE90C0102F009FDCDE90E0102F038
:103B3000ABFC1190504602F0D6FC0746914A924BDE
:103B400002F0FCFC0022944BCDE9040102F044FB9E
:103B5000CDE90801484602F0C6FC0746894A8A4B6F
:103B600002F0ECFC0022894BCDE9040102F034FBA9
:103B7000CDE90601DDE9082302F07EFACDE90A016C
:103B800002F014FA0022884BCDE90C0102F0D6FCB9
:103B9000CDE90E0102F078FC0446504602F0A3FC89
:103BA0000746784A784B02F0C9FC00227A4BCDE9EF
:103BB000040102F011FBCDE90801484602F093FC34
:103BC0000746704A704B02F0B9FC00226F4BCDE9FA
:103BD000040102F001FBCDE90601DDE9082302F052
:103BE0004BFACDE90A0102F093F900226E4BCDE9C0
:103BF0000C0102F0A3FCCDE90E0102F045FC0546E4
:103C0000504602F070FC07465E4A5F4B02F096FC9D
:103C100000225E4BCDE9080102F0DEFACDE90A018F
:103C200002F0C4F90022614BCDE90C0102F086FCE0
:103C3000CDE90E0102F028FC1090504602F053FC32
:103C40000746504A504B02F079FC00224F4BCDE919
:103C5000080102F0C1FACDE90A0102F059F9002287
:103C6000524BCDE90C0102F069FCCDE90E0102F0E6
:103C70000BFC06460621119890FBF1F0C83087B284
:103C80009BFBF1F0C0F164001FFA80F84FF478401C
:103C90000090119AC2F1C80291B20BF1640290B285
:103CA0003B464246FFF78FFC1F202F464FEAE57C3C
:103CB00005EB9C7C4FEAAC0C0CF1C80C1FFA8CF3A2
:103CC000A0464FEAE47C04EB9C7C4FEAAC0CCCF1C0
:103CD000640C1FFA8CF2C5F1C80C1FFA8CF104F1C8
:103CE000640C00901FFA8CF0FFF76DFC032096FB2C
:103CF000F0F0C83087B20321109890FBF1F0C0F1CA
:103D000064001FFA80F84FF4FC60C6F1C80291B25B
:103D10000090109A643290B23B464246FFF753FC43
:103D200015B0BDE8F08F2DE9F74F92B08946924665
:103D3000504602F0D8FB0746124A134B02F0FEFB36
:103D40000022154BCDE9040102F046FACDE9080145
:103D5000484602F0C8FB07460A4A0B4B02F0EEFB4E
:103D600000220E4BCDE9000102F036FACDE9040144
:103D7000129802F0B8FB0746024A034B02F0DEFB42
:103D8000002215E04AD8124DFB21094000003E40B8
:103D9000000054400000574000209C4000807640C6
:103DA0000000184000004E4000805640000059407E
:103DB000E84BCDE9000102F00FFACDE90201DDE99F
:103DC000042302F059F9CDE90601DDE9082302F0E8
:103DD00053F9CDE90A0102F0E9F80022DE4BCDE902
:103DE0000C0102F0ABFBCDE90E0102F04DFB834666
:103DF000504602F078FB0746D84AD94B02F09EFBAA
:103E00000022D84BCDE9040102F0E6F9CDE9080122
:103E1000484602F068FB0746D04AD14B02F08EFBC1
:103E20000022D14BCDE9000102F0D6F9CDE9040121
:103E3000129802F058FB0746C84AC94B02F07EFBB5
:103E40000022C44BCDE9000102F0C6F9CDE9020120
:103E5000DDE9042302F010F9CDE90601DDE90823CC
:103E600002F00AF9CDE90A0102F052F80022BA4B39
:103E7000CDE90C0102F062FBCDE90E0102F004FB7A
:103E80001190504602F02FFB0746B44AB44B02F0A3
:103E900055FB0022B34BCDE9040102F09DF9CDE9B9
:103EA0000801484602F01FFB0746AC4AAC4B02F043
:103EB00045FB0022AD4BCDE9040102F08DF9CDE9BF
:103EC0000601DDE9082302F0D7F8CDE90A0102F086
:103ED0006DF80022A64BCDE90C0102F02FFBCDE9D5
:103EE0000E0102F0D1FA0446504602F0FCFA0746F1
:103EF0009A4A9B4B02F022FB00229A4BCDE9040127
:103F000002F06AF9CDE90801484602F0ECFA0746EA
:103F1000924A934B02F012FB0022944BCDE904012C
:103F200002F05AF9CDE90601DDE9082302F0A4F810
:103F3000CDE90A0101F0ECFF00228D4BCDE90C0127
:103F400002F0FCFACDE90E0102F09EFA0546504659
:103F500002F0C9FA0746814A814B02F0EFFA0022CB
:103F6000824BCDE9080102F037F9CDE90A0102F0F0
:103F70001DF800227F4BCDE90C0102F0DFFACDE9FC
:103F80000E0102F081FA1090504602F0ACFA07469A
:103F9000724A734B02F0D2FA0022744BCDE9080149
:103FA00002F01AF9CDE90A0101F0B2FF0022714BCB
:103FB000CDE90C0102F0C2FACDE90E0102F064FA7B
:103FC00006460621119890FBF1F0C83087B29BFBA2
:103FD000F1F0C0F164001FFA80F800200090119AFF
:103FE000C2F1C80291B20BF1640290B23B46424664
:103FF000FFF7E9FA00202F464FEAE57C05EB9C7CB1
:104000004FEAAC0C0CF1C80C1FFA8CF3A0464FEA37
:10401000E47C04EB9C7C4FEAAC0CCCF1640C1FFA02
:104020008CF2C5F1C80C1FFA8CF104F1640C0090FD
:104030001FFA8CF0FFF7C7FA032096FBF0F0C830A8
:1040400087B20321109890FBF1F0C0F164001FFAD1
:1040500080F80020C6F1C80291B20090109A643234
:1040600090B23B464246FFF7AEFA15B0BDE8F08F7E
:104070002DE9F04704460D4616461F46DDF8208020
:10408000B44201DCBD4201DDBDE8F0873B4632466B
:1040900029462046FFF770F9301B401C84B2781B7C
:1040A000401C85B20BE0A94602E04046FFF7A5F8A8
:1040B000B9F10000A9F101011FFA81F9F5D1201E23
:1040C000A4F101018CB2EED100BFDDE72DE9F04192
:1040D00004460D46174605F1010C1FFA8CF304F156
:1040E000010C1FFA8CF2A5F1010C1FFA8CF1A4F15E
:1040F000010C1FFA8CF0FFF73FF9002604E0384668
:10410000FFF77BF8701CC6B2092EF8DB211D8AB2BE
:10411000211F88B22B462946FFF72EF9002604E01E
:104120003846FFF76AF8701CC6B2092EF8DB281D66
:1041300083B2281F81B222462046FFF71DF90026D0
:1041400004E03846FFF759F8701CC6B2092EF8DBB8
:10415000BDE8F0810000184000004E404AD8124DE2
:10416000FB21094000209C400080764000003E403A
:10417000008056400000594000B587B0012140F250
:104180000520FCF78FFE4FF40040FCF7EFFD022006
:10419000ADF8180000208DF81B0003208DF81A00E0
:1041A00006A91B48FCF7C2FB002001908DF808000F
:1041B0008DF809004FF46020039000200490012046
:1041C0008DF8140001A91348FEF705F90723012211
:1041D00011461048FEF797F901210E48FEF727F91E
:1041E0000C48FEF746F900BF0A48FEF747F90028D9
:1041F000FAD10848FEF74CF900BF0648FEF74DF922
:104200000028FAD101210348FEF751F907B000BD9B
:10421000000801400024014008B501210802FCF714
:1042200041FE4FF40060ADF8000010208DF803004F
:1042300003208DF8020069466848FCF777FB08BD4B
:1042400008B54FF40060ADF8000004208DF80300BD
:1042500003208DF8020069466048FCF767FB08BD43
:1042600008B54FF40060ADF8000010208DF8030091
:1042700003208DF8020069465848FCF757FB08BD3B
:1042800010B5FFF7EDFF4FF400615448FCF7FDFB5C
:104290004FF4F070FEF7BEFE4FF400614F48FCF79C
:1042A000F2FB4FF4F070FEF7B5FE10BD70B504469A
:1042B0000025FFF7D5FF00BF20E04FF4006147481D
:1042C000FCF7E3FB0F20FEF7A5FE04F0010028B188
:1042D0004FF400614148FCF7D6FB04E04FF4006165
:1042E0003E48FCF7D2FB3C20FEF794FE4FF4006101
:1042F0003A48FCF7C8FB6410681CC5B2082DDCDB2B
:1043000070BD70B50025002400BF22E06410FFF7E7
:10431000A7FF4FF400613148FCF7B7FB0420FEF71C
:1043200079FE4FF400612D48FCF7ADFB0A20FEF743
:1043300071FEFFF785FF4FF400612848FCF789FB09
:10434000012801D144F080042D20FEF763FE681C93
:10435000C5B2082DDADB204670BD2DE9F047FFF726
:104360008FFFCC20FFF7A2FF4420FFF79FFF4FF401
:104370004870FEF76AFEFFF783FFCC20FFF796FF39
:10438000BE20FFF793FFFFF7BCFF8246FFF7B9FFA0
:1043900081464C460AEB042084B204F47840B0F520
:1043A000784F0DD1E043401C84B2204602F0B2F8B1
:1043B000074600220A4B02F0C1F805460E4609E006
:1043C000204602F0A7F807460022064B02F0B6F896
:1043D00005460E4628463146BDE8F08700200140DC
:1043E0000000B0BF0000B03F1FB5012140F2011036
:1043F000FCF758FD4FF40040ADF80C0048208DF854
:104400000F0003A92048FCF791FA4FF40040FDF794
:10441000A4F80F210620FCF79FFB4FF40040019009
:1044200000208DF808000C208DF8090001208DF87F
:104430000A0001A8FDF71AF84FF4C060FCF79AFFD4
:1044400028208DF8000000208DF8010001208DF853
:1044500002008DF803006846FCF791FF1FBD10B500
:10446000002408E0601CC4B21420FEF7D3FDFA2C2F
:1044700001DB204610BD4FF400410348FCF7E9FA88
:104480000128EFD02046F5E70020014010B5624832
:10449000006820F00F00604908600846006840F09E
:1044A0000300086000205D4908601420FEF7CDFD80
:1044B00001205B49C1F880011E20FEF7ABFD10BD55
:1044C00010B500245448006820F00F0052490860DD
:1044D0000846006840F00800086004E0601CC4B2B0
:1044E0000120FEF797FD4D488038006808B1642C24
:1044F000F4DB642C01DB012010BD002404E0601C0F
:10450000C4B20120FEF786FD44488038006808B92F
:10451000642CF4DB642C01DB0120EDE70020EBE7E9
:1045200010B5002404E0601CC4B20120FEF772FD47
:104530003A488038006808B1642CF4DB002404E0B9
:10454000601CC4B20120FEF765FD34488038006865
:1045500008B9642CF4DB2820FEF75CFD2F48803876
:10456000006808B1012010BD0020FCE770B50024F0
:10457000002506E06006040EFFF7D2FF0443681C26
:10458000C5B2082DF6DB204670BD7CB505460E464B
:10459000FFF77CFFFFF794FFF8B9002405E0FFF771
:1045A000E5FF0DF80400601CC4B2052CF7DB9DF894
:1045B00000009DF8011008449DF8021008449DF881
:1045C000031008449DF80410884208D19DF80000AB
:1045D00030709DF80200287001E001207CBD0020B1
:1045E000FCE708B501210420FCF75CFC0120ADF8D4
:1045F000000010208DF8030003208DF802006946AA
:104600000548FCF793F901210348FCF73CFAFFF752
:104610003DFFFFF755FF08BD000801408001214222
:1046200000002142704700000FB4044910B503AAEE
:10463000029800F0E1FB10BC5DF814FB2C00002098
:104640000FB41CB5074B06AA7B4469460090059839
:1046500000F0B9FB0020694600F0C8FB1CBC5DF807
:1046600014FB0000A10700002DE9F04106460024DC
:1046700010687529314616A510D0AFF300800028C8
:1046800002DA404213A507E031688A0701D512A576
:1046900002E0490704D511A5012401E0AFF3008031
:1046A00000210A2206F1240709E0B0FBF2FCB0FB6E
:1046B000F2F302FB1C00303078541846491C0028E5
:1046C000F3D123462A463046BDE8F04100F00DB94B
:1046D000000000002D0000002B0000002000000062
:1046E0002DE9F05F894604464FF0000ADFF874B107
:1046F000FB44C0F820A02046E1688847002874D019
:10470000252806D0D4E901219047206A401C206268
:10471000F1E700265F462046E168884720280546E5
:1047200007DB312D05D2781910F8200C08B10643AB
:10473000F1E7B00701D526F00406C4F81CA0002755
:10474000C4F818A02A2D09D0284601F0D9FB38B3A7
:1047500004EB8708303DC8F8185019E059F8041BDD
:10476000204604EB87029161E1688847012F0546E6
:1047700018D1E069002820DA26F020061DE0D8F8DC
:10478000180000EB800005EB40003038C8F8180036
:104790002046E1688847054601F0B2FB0028EED1CB
:1047A000012F0AD02E2D08D12046E16888477F1CB2
:1047B0000546022F46F02006C4DBA069002803DA74
:1047C000404246F00106A061F00701D026F0100635
:1047D0006C2D0BD0682D09D04C2D39D06A2D35D0D9
:1047E000742D35D07A2D33D016E038E0E1682F46AD
:1047F00020468847B842054609D16C2F26D04FF491
:104800008060E168064320468847054604E06C2F37
:104810001AD04FF4807006430DB3A5F1410019285A
:1048200002D8203546F400664A46294620462660CE
:104830004E46FBF7B7FC80B101280BD0F61D26F0E1
:10484000070000F1080956E74020E4E78020D8E798
:104850000020D6E706F104094DE7284652E7206A12
:10486000BDE8F09F4829000010B5203AC0F00B8049
:10487000B1E81850203AA0E81850B1E81850A0E864
:104880001850BFF4F5AF5FEA027C24BFB1E81850BE
:10489000A0E8185044BF18C918C0BDE810405FEA2E
:1048A000827C24BF51F8043B40F8043B08BF7047AA
:1048B000D20728BF31F8023B48BF11F8012B28BFAF
:1048C00020F8023B48BF00F8012B70477047704743
:1048D0007047704710B500F0A5FA006810BD10B51C
:1048E000044600F09FFA046010BD2DE9F0470D4624
:1048F00099469246044600F124080168880604D5CA
:10490000E06921F01001216000E00120A84201DDF2
:10491000471B00E00027A1697A1902EB0900081A79
:10492000A0612078C00602D42046AFF300800026A4
:1049300008E0D4E901211AF806009047206A401CDB
:10494000761C20624E45F4DB2078C0060AD520464E
:10495000AFF3008006E0D4E9012130209047206ABF
:10496000401C2062381EA7F10107F4DC07E0D4E9FF
:10497000012118F805009047206A401C2062281E7B
:10498000A5F10105F3DC2046AFF300802078000696
:1049900002D50220BDE8F0870120FBE770472DE932
:1049A000FF4F0C461E464FF0FF378BB0D2E9000197
:1049B000DDF860800A908A46C1F30A5505B93D4684
:1049C000002108464FF00000BAF1000F00F440004B
:1049D00005DA00EB80004FF4400101EA50004FEA95
:1049E0009059B9F1010F00DDB9460A9850EA4A0022
:1049F0000ED044F61050A5F2FF3545432F14B8F100
:104A0000000F1ED07542291E1EDDC9F100021CE0F8
:104A1000B8F1010F4FF0000001D0302103E0F24364
:104A200005E02154401CB042FBDB3046002200214F
:104A300021540B99C1F80880C1E900200FB0BDE8EE
:104A4000F08FBD1B6D1CDEE74A4600DA694206A8FE
:104A500000F072FA06AB93E8070003AB83E80700A7
:104A600050460A9900F050FB8DE80700A0F5005071
:104A70001F3800900398002D0ADD42F21F014A46BC
:104A80000844002303A90390684600F0B9FD09E03B
:104A9000A0F500504A461F38002303A9039068463A
:104AA00000F0C3FD8DE807000004000C03D04FF0B8
:104AB000FF30410800E01046B8F1000F03D000229B
:104AC000009215461EE0751E05D400F0AFF9303295
:104AD00062556D1EF9D5B3460122084302D000226B
:104AE0007F1C04E02078302801D100227F1E002A9C
:104AF000099784D01DE0112D07DA00F097F93032C4
:104B000062556D1C50EA0102F5D1084302D00098AD
:104B1000C8B10EE00021681E05E0235C625C6354AE
:104B20002254401E491C8142F7DBAB46A81B401EA5
:104B30000990002004F80B000B98099AC0F808802F
:104B4000C0E9002B7AE711264FF0000857E72DE95E
:104B5000F04F88460446D21D22F0070191B0D1E9FA
:104B60000001CDE90A0100F097FE02460B98C00F44
:104B700001D02D2007E02068810701D52B2002E01D
:104B8000202101EAC000032A099001D0072A05DB91
:104B900003464146204600F08FF90BE1207880065D
:104BA00001D5E06900E00620B8F1650F814606D026
:104BB000B8F1660F18D0B8F1670F70D131E000205E
:104BC000B9F1110F009001DB112301E009F101039C
:104BD0000AAA01A90CA8FFF7E2FEDDE90C70002685
:104BE00009F10105834647E001204B4600904FF054
:104BF00000470AAA01A90CA8FFF7D1FEDDE90DB014
:104C00000C995D46002610B909F101000D18B9EBA9
:104C1000050003D4C0F1FF3609F10105A5EB090039
:104C20002BE0B9F1010F01DA4FF001090020B9F1D1
:104C3000110F0090484601DD112300E003460AAA47
:104C400001A90CA8FFF7ABFEDDE90C704D4600266C
:104C50008346207800070AD4AB4500DA5D4601A8F8
:104C6000012D04DD411911F8011C302907D04F45F1
:104C700002DA17F1040F04DA012082460FE06D1EFC
:104C8000EEE7002F02DCED1B3E4403E0781CA84257
:104C900000DD7D1CB81B00F1010A4FF000472078B1
:104CA000000703D4AA4501DB4FF0FF3A0021B7F11A
:104CB000004F0DF143088DF8431024D002202B2320
:104CC000002F01DA7F422D230A21021EA0F10100EC
:104CD00000DC5FB197FBF1FC97FBF1F201FB1C7C60
:104CE00017460CF1300C08F801CDEEE7A8F10100F1
:104CF00003702188090501D5452100E06521A0F157
:104D0000010800F8011C09980FA9A1EB0807FF1D75
:104D100000B10120411901EBEA70A1693844081A79
:104D2000401EA0612078C00602D42046AFF3008068
:104D3000099828B1D4E901219047206A401C2062DB
:104D40002078C00622D52046AFF300801EE0002E5A
:104D500004DBB34502DD01A8805D00E03020D4E92A
:104D600001219047206A401C2062761CAAF10100B4
:104D70005FEA000A0AD100F051F8C0680168405C9F
:104D8000D4E901219047206A401C2062281EA5F129
:104D90000105DCDC07E0D4E9012118F8010B90479C
:104DA000206A401C2062381EA7F10107F3DC204670
:104DB000AFF30080032011B041E6000001694A1CF6
:104DC00002610878704700B58FB0CDE9013100214C
:104DD000059105497944CDE9031011466846FFF76E
:104DE0007FFC0FB000BD0000E5FFFFFF0A6802F87E
:104DF000010B0A6070470000074B70B50D467B44FD
:104E0000FFF7E1FF0446284600F008F910B14FF023
:104E1000FF3070BD204670BD89E2FFFF004870473B
:104E20006C000020004870474C00002030B5B0F105
:104E30000A024FEA900E71F100034EEA817EB0EB58
:104E40000E0061EB91014FEA101E4EEA017E10EB5D
:104E50000E0041EB11114FEA102E4EEA016E10EBDD
:104E60000E0041EB11214FEA104E4EEA014E10EBBD
:104E70000E0041EB1141401841F100014FEAD00012
:104E800040EA41704FEAD10110EB80054FEA8104FE
:104E900044EA907444EB01046D1944EB0404521B82
:104EA000A3414FF0000348BF0A3200D530BD401C7B
:104EB00041F1000130BD00002DE9F0411F460446DC
:104EC00003260168072A01F4006004DB08B116A577
:104ED00005E016A503E008B115A500E015A521F031
:104EE00010002060A069C01EA0610FB1401EA0612B
:104EF0002046AFF300804FB1D4E9012138469047F6
:104F0000206A401C2062C01C206206E0206AFAE78A
:104F1000D4E9012115F8010B9047761EF8D22046FE
:104F2000AFF30080BDE8F0814E414E006E616E002F
:104F3000494E4600696E66002DE9F04781461646E7
:104F40008AB0354878440DC88DE80D003248784461
:104F5000801C03AC0DC884E80D0041F69B3008446A
:104F6000372190FBF1F290FBF1F5A5F1800501FBF3
:104F700012041B3C02D56442012000E00020DFF84F
:104F800098A080460027FA44AAF1BE0A0EE0E00786
:104F90000AD03246684607EB470101230AEB81013C
:104FA00000F043FB8DE8070064107F1C002CEED15D
:104FB000194F7F44AE3F19E0E80715D007EB041006
:104FC0000DF1180A90E80E008AE80E00C068F04261
:104FD00001D1981908903246012306A903A800F0D0
:104FE00024FB03AB83E807006D10641C002DE3D1A4
:104FF0004FF0010332466946B8F1000F03A802D012
:1050000000F0FEFA01E000F010FBC9E90001C9F868
:1050100008200AB0BDE8F087A4220000007B00F061
:1050200080007047004870474C0000207546FFF72D
:10503000F9FFAE4605006946534620F00700854655
:1050400018B020B5FBF700FCBDE820404FF000068B
:105050004FF000074FF000084FF0000B21F0070160
:10506000AC46ACE8C009ACE8C009ACE8C009ACE8A3
:10507000C0098D46704710B50446AFF30080204646
:10508000BDE81040FBF7ABB84FF0013C50F8042BE3
:1050900051F8043B9A4221D1A2EB0C03934313EA4B
:1050A000CC1317D150F8042B51F8043B9A4215D178
:1050B000A2EB0C03934313EACC130BD150F8042B4F
:1050C00051F8043B9A4209D1A2EB0C03934313EA33
:1050D000CC13DBD04FF00000704700BFD01A01BAEC
:1050E000B1FA81F101F0180122FA01F0CB40C1F1CF
:1050F0002001DBB2C0B2C01A2CFA01F3D11A9143DD
:1051000011EAC311E6D170475FEA400C08BF91F085
:10511000000F4FEA8C234FEAC12243EA51514FEA74
:105120001C5018BF00F5F0404FEA300018BF41F0A6
:1051300000415FEA6C5C00F02980BCF1FF3F08BFD2
:1051400040F080407047130C06BF12044FF0100C63
:105150004FF0000C130E04BF12020CF1080C130FD9
:1051600004BF12010CF1040C930F04BF92000CF168
:10517000020CD30F04BF52000CF1010C11464FF08A
:105180000002A0F11F00A0EB0C00704711F0004FCF
:1051900008BF704731F000413FF4D5AF0B0C06BF9C
:1051A00009044FF0100C4FF0000C0B0E04BF090265
:1051B0000CF1080C0B0F04BF09010CF1040C8B0F50
:1051C00004BF89000CF1020CCB0F04BF49000CF1A5
:1051D000010CCCF12003A0EB0C0022FA03F302FA3D
:1051E0000CF241EA030100F10100704720F07F4C0E
:1051F00080EA030023F07F47ACEB070303F57C5301
:1052000000F0004003F1FF032DE980494FEA154B00
:1052100009B44FEA144325EA0B4E24EA03480FF27F
:10522000042606EB132749083E785FEA320203FBA7
:105230000667C7F5000707FB06F64FEA54374FEA43
:10524000D64606F1020607FB066CCCF1005C4FEA7D
:105250001C472CEA074C07FB06F40CFB06F504EB95
:1052600015464FEA961634BF00204FF000404FEA33
:10527000D13706FB07FC4FEA1C4C0CFB0BF7D21B8B
:1052800003FB0CF761EB07010CFB0EF7B0EB0740DB
:1052900072EB17420CFB08F734BFA2EB0742B2EBEC
:1052A000074261EB17414FEA0C444FEA910706FBB6
:1052B00007FC4FEA1C4C0CFB0BF7B0EBC74072EB42
:1052C000573203FB0CF734BFA2EBC742B2EBC74225
:1052D00061EB57310CFB0EF7B0EBC70072EB577266
:1052E0000CFB08F734BFA2EBC702B2EBC70261EBBD
:1052F0005771039F4FEA816141EA921104EBCC049C
:105300004FEAD1374FEA826206FB07FC42EA90126D
:105310004FEA80604FEA1C4C0CFB0BF7D21B03FBDF
:105320000CF761EB07010CFB0EF7B0EB074072EBDB
:1053300017420CFB08F734BFA2EB0742B2EB07425F
:1053400061EB17414FEA8C554FEA910704EB9C241F
:1053500006FB07FC4FEA1C4C0CFB0BF7B0EBC740FD
:1053600072EB573203FB0CF734BFA2EBC742B2EB30
:10537000C74261EB57310CFB0EF7B0EBC70072EB85
:1053800057720CFB08F734BFA2EBC702B2EBC7029F
:1053900061EB577115EB4C254FEA816141EA92119F
:1053A0004FEA82624FEAD13742EA901206FB07FCCD
:1053B00044F100044FEA80604FEA1C4C0CFB0BF7F1
:1053C000D21B03FB0CF761EB07010CFB0EF7B0EBF4
:1053D000074072EB17420CFB08F734BFA2EB074201
:1053E000B2EB074261EB174115EB1C154FEA813117
:1053F00041EA92414FEA823242EA90424FEA8030DB
:105400004FEA0C7644F1000448EA03434EEA0B48A5
:105410004FF0000EB2EB080C71EB030724BF62469D
:1054200039464EEB0E0E4FF0000B00185241494129
:105430004BEB0B0BB2EB080C71EB03077BF1000B92
:1054400024BF624639464EEB0E0E4FF0000B00189B
:10545000524149414BEB0B0BB2EB080C71EB0307CC
:105460007BF1000B24BF624639464EEB0E0E51EA2B
:10547000020718BF46F0010616EB0E7655F1000242
:1054800054F1000103D5BDE88901BDE80088BDE8FD
:105490008901BDE80048B619524141EB0101A3F171
:1054A0000103704780807F7E7D7C7B7A7978777678
:1054B00076757473727171706F6E6E6D6C6C6B6AF1
:1054C0006A6968686766666564646363626161608F
:1054D000605F5F5E5E5D5D5C5C5B5B5A5A5959580C
:1054E0005857575656555555545453535252525176
:1054F000515050504F4F4F4E4E4D4D4D4C4C4C4BCC
:105500004B4B4A4A4A494949484848474747474612
:10551000464645454544444444434343434242424E
:1055200042414141002B9C4630D477002BD01CB522
:105530004FEA370703B44FF010004FF01001BAF1F3
:10554000000F06D0BCF1000FDCBF40F0080040F0B7
:1055500008014FF000000FBCBDE810400BF1010B3B
:10556000BBF1010F08BF5FEA170722BF12F101026A
:1055700011F101014FF0004143F1000300F0004040
:1055800043EA00007047F9D35708D0E746EA0646D9
:1055900013F1400F4FEA16461FDD13F1200FDFBF56
:1055A00016430A46002120335B42BED0C3F12007D8
:1055B00046EA064602FA07F74FEA164646EA0706A3
:1055C000C3F1200722FA03F201FA07F721FA03F1E7
:1055D0004FF0000342EA0702A7E746EA020646EA5E
:1055E00006464FEA164646EA0106BCBF46EA0646AC
:1055F000360C4FF000034FF000024FF0000194E72B
:105600002DE9804C9A46934670B491E8380007C85B
:1056100031EA400C48BF34EA430C03D5FFF7E6FDFE
:10562000FFF780FFF0BCBDE8008C2DE9804C9A4666
:10563000934670B491E8380007C810F0804F08BF57
:1056400013F0804F03D100F005F8FFF76BFFF0BCBB
:10565000BDE8008C20F07F4780EA030023F07F4CF8
:1056600007EB0C03A3F57C5300F00040A3F1FE030D
:1056700092F0000F00F0B38095F0000F00F07780FB
:105680002DE901494FEA11404FEA144621EA00484A
:1056900000FB06FC24EA064708FB06F607FB08F8B1
:1056A00000FB07F718EB06484CEB164C4FEA124B81
:1056B00018EB07484FEA15464CEB174022EA0B4E11
:1056C0000BFB06FC25EA06470EFB06F607FB0EFE63
:1056D0000BFB07F71EEB064E4CEB164C4FF000068B
:1056E0001EEB074E4CEB174B18EB0B0840F100007C
:1056F00018EB0E0B58EB000840F100008F1A4FF02A
:1057000000013CBFC943661B14BFB5EB040C00216C
:105710003CBFC943F61B4FEA17444EEA8E0E27EAF8
:1057200004454FEA1C4704FB07622CEA074C05FBC3
:1057300007F70CFB05F604FB0CFC16EB074642EBE7
:10574000174216EB0C4642EB1C421BEB060658EBCD
:105750000202414146EA9E0601D5BDE80189B6191B
:10576000524141EB0101A3F10103BDE801894FEA78
:1057700014454FEA114724EA054621EA074C05FB88
:1057800007F406FB07F70CFB06F105FB0CFC11EB1D
:10579000074144EB17444FEA124711EB0C4144EB2D
:1057A0001C4422EA074C05FB07F206FB07F70CFB3B
:1057B00006F605FB0CFC16EB074642EB174216EB10
:1057C0000C4642EB1C456A1854F1000148BF704773
:1057D000B619524141EB0101A3F10103704795F065
:1057E000000F37D04FEA11424FEA144721EA024630
:1057F00024EA074C02FB07F106FB07F70CFB06F453
:1058000002FB0CFC14EB074441EB17414FEA154730
:1058100014EB0C4441EB1C4125EA074C02FB07F555
:1058200006FB07F70CFB06F602FB0CFC16EB074623
:1058300045EB174516EB0C4645EB1C42121951F18E
:10584000000148BF7047B619524141EB0101A3F175
:10585000010370474FEA14454FEA114724EA054611
:1058600021EA074C05FB07F106FB07F70CFB06F2E4
:105870004FF0000605FB0CFC12EB074241EB174111
:1058800012EB0C4251EB1C4148BF7047921841EBA0
:105890000101A3F101037047490050EAC12018BF7C
:1058A00004204A0D18BF40F0010040F2FF72B2EB35
:1058B000515F08BF40F00200012808BF0520704773
:1058C0002DE9F74F144694B00021C4E9021115994F
:1058D000079121F00045C9498D4206DC1599C4E9BC
:1058E000000117B00020BDE8F08FC549DFF814A310
:1058F000A9423CDD0799C44E0029C44FC44A1599FA
:10590000534619DD00F024FF554506D0C14AC24B6D
:1059100000F01EFFC4E900010AE04FF0D352BE4B75
:1059200000F016FF32463B4600F012FFC4E90001CA
:1059300017B00120BDE8F08F00F09EFB554506D062
:10594000B44AB54B00F098FBC4E900010AE04FF0FF
:10595000D352B14B00F090FB32463B4600F08CFB3B
:10596000C4E9000117B04FF0FF30BDE8F08FAB493C
:10597000A942159978DB21F0004183468846A84A60
:10598000A84B00F0DBFD0022A74B00F075FB00F0F8
:105990007BFD099000F0A7FD06460F469C4A534642
:1059A00000F0CCFD43465A4600F0C6FE80468A46CB
:1059B000984A994B3046394600F0C0FD2A0D012522
:1059C0000B924246534600F0B7FE032DC4E9000196
:1059D00039D00B98C1F30A51401A05EB4511113922
:1059E000814230DA9148C346784400EB0510CDF887
:1059F0000CA00C90D0E900233046394600F09EFD03
:105A000002460B46049106905846039900F0A0FE0A
:105A100080468A4602460B465846039900F098FE97
:105A2000049B069A00F094FE83460C980391394635
:105A3000D0E90223304600F081FD5A46039B00F076
:105A400087FE6D1CBDE707980028A2BF099817B014
:105A5000BDE8F08F616881F000416160099817B07E
:105A60004042BDE8F08FFFE784461598C1F313016B
:105A7000C0F30A50A0F2F5304FEA601800F01F069C
:105A8000C6F12000139000200690079041F4801E7C
:105A900005206D4676B1664A08EB00017A4452F85B
:105AA000213002EB8101B3404A68139922FA01F1D7
:105AB000194305E05F4908EB0002794451F82210D0
:105AC000A1FB0E27A1FB0C131A449A4234BF0123F9
:105AD000002303EB070A05EB8003D3E901B70F446A
